:020000041000EA
:1000000000B5324B212058609868022188439860DF
:10001000D860186158612E4B002199600221596106
:100020000121F02299502B49196001219960352056
:1000300000F044F80222904214D00621196600F024
:1000400034F8196E01211966002018661A6600F04E
:100050002CF8196E196E196E052000F02FF8012189
:100060000842F9D1002199601B49196000215960AB
:100070001A491B48016001219960EB211966A021F2
:10008000196600F012F800219960164914480160C1
:100090000121996001BC002800D000471248134993
:1000A000086003C880F30888084703B5996A0420EC
:1000B0000142FBD001200142F8D103BD02B5186610
:1000C0001866FFF7F2FF186E186E02BD00000240BE
:1000D000000000180000070000035F00212200005C
:1000E000F4000018222000A00001001008ED00E03C
:1000F00000000000000000000000000074B24E7A12
:1001000000200420F7010010C3010010C5010010F9
:10011000C1010010C1010010C1010010C101001097
:10012000C1010010C1010010C1010010C701001081
:10013000C1010010C1010010C9010010CB01001065
:10014000CD010010CD010010CD010010CD01001037
:10015000CD010010CD010010CD010010CD01001027
:10016000CD010010CD010010CD010010CD01001017
:10017000CD010010CD010010CD010010CD01001007
:10018000CD010010CD010010CD010010CD010010F7
:10019000CD010010CD010010CD010010CD010010E7
:1001A000CD010010CD010010CD010010CD010010D7
:1001B000CD010010CD010010CD010010CD010010C7
:1001C00000BE00BE00BE00BE00BE00BE00F04BF888
:1001D000103800BEF2EB887134CD001060CD0010F5
:1001E0003402001090A31AE700202149086006C8D5
:1001F00081F3088810471F48006800282FD10DA4FC
:100200000ECC002902D000F012F8F9E71A491B4A77
:10021000002000E001C19142FCD1194988471949E9
:1002200088471949884700BEFDE701C901C29A42C3
:10023000FBD3704760CD0010C0000020D41C00200C
:1002400074E90010000004200000042074E900108C
:1002500000100420001004200000000070470B482C
:1002600003F0F8FC0047EFF30580C0B270470000D0
:1002700008ED00E0000000D0D81C0020C02A0020BB
:100280007D210010F109001039210010575600009F
:1002900006005250ABB3605334BF001006005250FA
:1002A000861C030244BF0010060052505422A29D37
:1002B0005CBF001005005250DE65F46874E9001060
:1002C000F8B5C0460448054B10B5834203D0044B33
:1002D000002B00D0984710BDD41C0020D41C002057
:1002E0000000000006480749091A8B10C90FC918F9
:1002F00010B5491003D0044B002B00D0984710BD17
:10030000D41C0020D41C00200000000010B5074CB5
:100310002378002B09D1FFF7D5FF054B002B02D026
:10032000044800E000BF0123237010BDE01D002041
:100330000000000080AD0010054B10B5002B03D06D
:100340000449054800E000BFFFF7CCFF10BDC046E0
:1003500000000000E41D002080AD0010002380227A
:100360009200934202D2C1540133F8E770474378B8
:100370000178591A0131C2788378D31A01334B437B
:100380004360704700B585B080236A46137350738D
:1003900000230093023303AA3C21024808F0BCFB6F
:1003A00005B000BD60140020F0B583B006000D005C
:1003B0004F1C380005F00CFB04000123AB4205DCA8
:1003C000F218013A1278E2540133F7E74023237020
:1003D000002300933B0022003C21044808F09CFBD2
:1003E000200005F007FB03B0F0BDC04660140020FC
:1003F00010B5AE20FFF7C6FF2020FFF7C3FF002097
:10040000FFF7C0FF4020FFF7BDFFA120FFF7BAFFB5
:10041000A820FFF7B7FF1F20FFF7B4FFC820FFF7A2
:10042000B1FFD320FFF7AEFF0020FFF7ABFFDA20CC
:10043000FFF7A8FF0220FFF7A5FFD520FFF7A2FFD7
:100440008020FFF79FFFD920FFF79CFFF120FFF7E7
:1004500099FFDB20FFF796FF3020FFF793FF812005
:10046000FFF790FFFF20FFF78DFFA420FFF78AFF23
:10047000A620FFF787FF8D20FFF784FF1420FFF7EA
:1004800081FF2E20FFF77EFFAF20FFF77BFF10BD1F
:1004900070B505000C002120FFF774FF2078FFF7EE
:1004A00071FF6078FFF76EFF2220FFF76BFFA078E7
:1004B000FFF768FFE078FFF765FF61682800FFF746
:1004C00073FF70BDF0B5C64600B506000F001900F9
:1004D0009B005B185B0098469044284B1B78002BD0
:1004E00001D100252DE0264805F0BAFBF9E72100EF
:1004F000244805F0E7FB2DE02100234805F0E2FB4E
:100500002CE0E900491B4144204805F0DBFB203C7E
:10051000A3001C19EB005B1B43441D4A115DF15401
:10052000601C591C105C7054A01C991C105C705409
:10053000E01CD91C105C705404340433125DF25476
:1005400001357B689D420ED23B685C5D0B4B1B788E
:10055000002BCCD1094B1B78002BCDD1074B1B783E
:10056000002BD4D0CDE7054B1B78002B02D104BC67
:100570009046F0BD074805F073FBF8E7F12700202F
:1005800080AD001090AD0010A0AD0010B8AD00100F
:10059000C8AE0010D0AD0010F0B585B00092019348
:1005A0004C4A4D4B03F0F6FD02000B0049484B4905
:1005B00003F0F9FD04000D000022494B03F0E1FDBA
:1005C00006000F00474A484B03F00BFE02900391D0
:1005D0002000290004F036FA444A454B03F001FE9E
:1005E00002000B000298039903F0D4FD02900391DE
:1005F00022002B0000203A4903F0D5FD02000B0039
:100600000020374903F0BDFD3A4A3B4B03F0E9FDBA
:1006100002000B000024394D2000290004F01EFACE
:1006200000222F4B03F0ADFD354A364B03F0D9FDC8
:1006300002000B000298039903F0ACFD02900391B5
:10064000314A324B3000390003F0CBFD02000B0081
:100650002000290004F002FA0022214B03F091FD52
:100660002B4A2C4B03F0BDFD02000B0002980399AE
:1006700003F090FD284A294B03F08CFD0022284B03
:1006800003F07FFD02000B002000290004F0E6F9D2
:1006900002000B000098019903F0A3FD214A224BB0
:1006A00003F081FD03F076FE04000D001F4A204B8D
:1006B00003F097FD06000F0022002B001D481E4985
:1006C00003F05FFD02000B003000390003F06BFD0A
:1006D00005B0F0BD66666666661271406652774088
:1006E0000000F03FB1C403CAA69C1FC0CDAFE60016
:1006F000C11C1440E3A59BC420B026400000244048
:10070000B13D4236248B82BE037D224F92EE0BC058
:10071000630333F0EDA7803F1B549E40B40B0840A9
:1007200000000840CFA0A17F828BE33F5C8FC2F521
:10073000283C6E40022B8716D98E314070B50400DC
:100740000D00100019000F4A0F4B03F023FD0200AB
:100750000B000E480E4903F026FD02000B000D4869
:100760000D4903F00EFD03F009FE0C4A0C4B03F09B
:1007700038FD22002B0003F00DFD0A4A0A4B03F05E
:1007800000FD70BDC3F5285C8F127140E3A59BC4CA
:10079000C029B540C520B07268D533402CD49AE644
:1007A0001D270B40B81E85EB51381640F0B5C646E4
:1007B00000B586B080461422002101A805F026F974
:1007C000D024240680252D026562A561122001F047
:1007D00081F8A5622820002101F050F880239B04B5
:1007E000636100260027012519E0D0231B065D6800
:1007F000ED0B01231D40FF2C23D0032E0ED9F30750
:100800000CD4FA0801A9900043585B004350322CE5
:1008100003D901210B4301A9435001370136542E5E
:100820000FD80024D0231B065A68D20B0123134093
:10083000AB42DAD10134012001F02AF9FF2CF1D1C9
:10084000D3E7D0231B06802292049A61272F0BD96D
:100850000599019D02982B18039C1B19049E9B1956
:10086000FF221340994206D01D4805F0F9F906B061
:1008700004BC9046F0BD2B02C01804F0CDFF19490E
:1008800004F07DFF43461860174904F0BFFF0028BD
:1008900004D0280004F0C0FF434618602002FE2365
:1008A000DB011840301804F0B7FF0E4904F067FF71
:1008B000434658600D4904F0A9FF002804D02000E9
:1008C00004F0AAFF434658602306D0D543465B6830
:1008D000802212069446634442465360C7E7C046EE
:1008E000E0AD0010000020410000C8420000FA42C4
:1008F00070B582B005000E1E0DD0941B01940F2C14
:100900000ED82868012C14D0002C14D022003100FD
:1009100005F082F80FE09142EFD00B4808F018F98B
:10092000002201A9280008F043F92860019BAB6070
:10093000E7E733780370019A6A602B689B180022FE
:100940001A7002B070BDC046ECAD001070B582B038
:1009500005000E1E0DD0941B01940F2C0ED8286894
:10096000012C14D0002C14D02200310005F054F8D2
:100970000FE09142EFD00B4808F0EAF8002201A9FD
:10098000280008F015F92860019BAB60E7E7337891
:100990000370019A6A602B689B1800221A7002B0DB
:1009A00070BDC046ECAD001008B4F0B582B000AF29
:1009B00004000D0011001C23FB1804CBC81DC00847
:1009C000C0006E46301A85466E467B60A8473218D6
:1009D000230008332360002331002000FFF7B6FF17
:1009E0002000BD4602B0F0BC08BC01B018470000B2
:1009F000F0B5C64600B5A04CA54405F06FF90F2030
:100A000000F088F9192000F085F9D0231B06802218
:100A100092045A62994805F023F99949994808F0D7
:100A20004FF80321042000F043F90321052000F0D2
:100A30003FF900220121042000F052F90022012197
:100A4000052000F04DF9FFF7D3FC0822002186A80D
:100A500004F0DCFF7F236A468B49521813707C3BFD
:100A60006A468A495218137086A8FFF780FC002155
:100A700006A8FFF773FC86A906A8FFF709FD002466
:100A8000022C0FDCA520FFF77DFCFA256D00280065
:100A900000F020FFA420FFF775FC280000F01AFFEB
:100AA0000134EDE7002106A8FFF758FC38E01022DA
:100AB000310090A804F0B0FFAFE006230093744B20
:100AC0000021A0A808F0F0F804009CAB9A930368FA
:100AD00005000835AB4200D1C8E09A9383689C9327
:100AE00063689B9325600023636023721A3300229E
:100AF0009AA906A8FFF7E6FC9A989CAB984201D009
:100B000004F094FFA098A2AB984201D004F08EFFAD
:100B100086A906A8FFF7BCFCFA20C00000F0DAFEA8
:100B200004A8FFF743FE059B98465A49181C04F099
:100B30003CFE594904F023FE8421C90504F01AFE45
:100B400004F08CFE06000F00049804F087FE0400F9
:100B50000D0002960397404604F080FE009001913C
:100B600022002B004D4805F0ADF8059804F076FE04
:100B700004000D00049804F071FE02000B00200038
:100B80002900FFF709FD02000B0020002900FFF7F4
:100B9000D5FD03F0E7FB3F4904F007FE3E4904F0B2
:100BA000EEFD8421C90504F0E5FD051C002106A821
:100BB000FFF7D4FB8AAC8894394A11000D39002321
:100BC00088A8FFF795FE0023002288A906A8FFF752
:100BD00079FC8898A04201D004F028FF0096019784
:100BE000304B3A22304994A8FFF7DEFE959A002A4E
:100BF00000D00022062300932C4B002194A808F07B
:100C000053F8040090AB8E93036806000836B34295
:100C100000D14CE78E938368909363688F9326602E
:100C20000023636023720D3300228EA906A8FFF70C
:100C300049FC8E9890AB984201D004F0F7FE94984E
:100C400096AB984201D004F0F1FE281C04F006FE99
:100C500000900191134B3A221349A0A8FFF7A4FE7C
:100C6000A19A002A00D128E7002226E710222900B5
:100C70009CA804F0D1FE33E768FDFFFF18AE00101A
:100C8000801A060060140020190200001B020000F8
:100C900094AE0010000010410000A04048AE0010CB
:100CA00085AE001088AE0010093C00108CAE00101C
:100CB00010B58300084A944663441C684022624091
:100CC000C02414408022520113431C60C000034B17
:100CD0009C466044416010BD04C00140004001409A
:100CE00080000B4B9C46604400290DD00823002A4D
:100CF0000CD004221343026853400C22134080227C
:100D000052011043036070470023F0E70022F1E72F
:100D100004C0014010B501238340D0221206936223
:100D200093610521FFF7C4FF10BD0000EFF31080B1
:100D300072B6034B1B68002BFBD0BFF35F8F70476D
:100D40002C0100D0BFF35F8F024B00221A6080F3AA
:100D5000108870472C0100D0F8B506000C00150073
:100D6000FFF7E4FFE308F718F15C072222400123B4
:100D700093400B4205D1DBB20B433B70FFF7E2FF20
:100D8000F8BD2100280001F075FAF0B583B0060027
:100D9000019114001F00FFF7C9FFBC420ED8E30801
:100DA000F518F35C0721214001228A401A4201D044
:100DB0000134F2E7D2B21A432A7001E001246442FE
:100DC000FFF7C0FF002C02DB200003B0F0BD019B49
:100DD000002BF9D0089801F04DFA0000034B1B6876
:100DE00002201840431E9841C0B2704700C0064020
:100DF00000231F2B08D8054A9A189200BFF35F8F73
:100E0000002111600133F4E77047C0464000003410
:100E1000054A1078431CDBB21370172B02D913005C
:100E200010221A707047C0468813002000B583B0A6
:100E30000100044B00931F2318220348FFF7A5FF6E
:100E400003B000BDBCB000100023002070B5050049
:100E50000C00080000F0CEFD200000F0E7FE08497D
:100E6000200000F027FEFFF7D3FF064B9C466044AE
:100E7000800068602C75A400034BE55070BDC0462F
:100E80009111001040000034A82700200A4B1A6876
:100E9000EFF3108172B61368002BFCD0BFF35F8FA5
:100EA000054B1B68BFF35F8F00221A6081F3108827
:100EB00040BF002000217047C427002010B5002942
:100EC00022D003681B7B99421ED8174B9C46614475
:100ED000090183689C4661440C684968002A19D05E
:100EE00003681B7B9A4215D883680F488446624486
:100EF00012019A1810685368020001208B4201D831
:100F00000ED00020C0B210BD084B094A3B21094851
:100F100001F016F9054B064A3B21064801F010F98D
:100F2000A242EFD8EDE7C046FFFFFF0F28B1001047
:100F3000F8B30010ECB0001010B500291ED0037BF0
:100F400099421BD84B005B18033B0468A4466344DA
:100F5000002919D0002A1DD0914221D0002A25D085
:100F6000047BA24222D8046850008018033820185D
:100F70008170197800291FD11A7010BD104B114AC9
:100F80006921114801F0DCF8104B114A70310E480C
:100F900001F0D6F80F4B0E4A71210B4801F0D0F842
:100FA0000D4B0B4A7221084801F0CAF8044B054A60
:100FB0006921054801F0C4F841701A70DDE7C046A8
:100FC0005CB10010B8B3001078B10010C4B10010CB
:100FD000C4B30010D0B10010DCB1001070B5060031
:100FE0000D001400002914D0002A14D08068736802
:100FF0009847002806D0220029003000FFF79CFF08
:10100000280007E02A0021003000FFF795FF2000AC
:1010100000E0100070BD0800FCE70000F0B583B0F0
:101020000500009201930AAB1C780BAB1F78002CD3
:1010300026D003685A7B944207D10123002B19D193
:10104000002C3BD1200003B0F0BD002C0CD01A7B4B
:10105000944209D81A6863001B19033BD3189B7884
:10106000002BEBD00123E9E73E4B3F4A69213F4883
:1010700001F066F83E4B3F4A65213F4801F060F8B9
:1010800003689C7B002CDBD012D01A7B94420FD8D3
:1010900062001219033A19688C46624451789973B8
:1010A000002900D1D9730023937053701370C7E7E0
:1010B0002C4B2D4A69212D4801F042F8002C3AD0E2
:1010C0002B681B7B9C4236D82C4BE3181B01AA686B
:1010D00094466344009A1A60019A5A60089A9A608A
:1010E000099ADA602E68002C2BD030D0337B9C42DA
:1010F0002DD863001B19033B3268944663440022D9
:101100009A705A701A70717B22003000FFF766FFE8
:101110007073844200D095E7287D009A019B00F00F
:1011200011FD061E01D0002F17D00C9B002B00D103
:1011300088E71E7086E7124B124A3B210E4800F0EA
:10114000FFFF114B114AA621084800F0F9FF054B9B
:10115000054A6921054800F0F3FF2868210000F0E6
:1011600051FFE2E75CB10010B8B3001078B1001095
:10117000F4B1001030B40010ECB00010FFFFFF0F0E
:1011800028B10010F8B30010E8B00010D8B3001078
:10119000F0B5DE4657464E464546E0B58BB0099061
:1011A000002308938200B34BD658370052E0B24B6D
:1011B000B24A3F21B24800F0C3FFB24BB24A3B21D2
:1011C000B24800F0BDFF002901D1002869D10021FB
:1011D000404600F00DFFA04219D12A686B680692C4
:1011E0000793AB689846EB689A464346002B14D0A9
:1011F000002C18D03B681B7B9C4214D8631EFA68F5
:10120000D35C08931B0218433861002015E0A04B03
:10121000A04A8C219D4800F093FF9F4B9D4A90214E
:101220009A4800F08DFF974B9C4A4021974800F068
:1012300087FF00239A46984600207B68BFF35F8FA4
:1012400000221A6086F310884346002B32D1002812
:1012500000D107E100F0DAFB02000B1EA7DB002043
:101260000021069007917868EFF3108672B6016846
:101270000029FCD0BFF35F8F396888464C7B002C77
:10128000D7D09AD0097B8C4297D8854965182D0113
:10129000B9688C46654428686968801A99410029B4
:1012A00091DD2A686B68099800F04CFC00239A468F
:1012B0009846C2E7089B1B022343994651461800F3
:1012C000C04705000E007A68EFF3108B72B6136802
:1012D00059424B41D9B2002BF9D1BFF35F8F002E99
:1012E00026DB002E52DD3B69002B53D04B4572D1DB
:1012F00000F08CFB02000B1E73DB0100180052197A
:101300007341984202D804D1914202D9012252423B
:10131000D317002B6BDB0021049101310391029460
:1013200051460191414600913800FFF777FE49E0B0
:101330003B69002BD5D04B451CD1069A079B10006A
:101340001900521BB341994202D804D1904202D9EC
:1013500001225242D317002B12DB002104910131EC
:101360000391029451460191414600913800FFF7E4
:1013700055FE27E04B4B474A9F21444800F0E0FED2
:101380003D4B3E4A3F213E4800F0DAFE002E01D19F
:10139000002DA8D13A68002C45D0537B9C422CD11B
:1013A000012100293FD1D37B002B42D1D473002CE3
:1013B00052D03B681B7B9C424ED8FA68013C135DBF
:1013C0000133135500233B617A68BFF35F8F1360CD
:1013D0008BF310883EE7334B2E4AA2212B4800F0B6
:1013E000AFFE254B254A3F21254800F0A9FE224BA0
:1013F000224A3F21224800F0A3FE002C0DD0137B8F
:101400009C420AD863001B19033B1068844663445E
:101410009B78002BC5D00121C3E7234B234A6921C8
:10142000234800F08DFE234B234AF721204800F08B
:1014300087FE002B0AD0117B8B4207D85900CB18AE
:10144000033B11688C4663445C70AFE7164B174A48
:101450006921174800F074FE0A4B104A40210B48DE
:1014600000F06EFE0BB03CBC90469946A246AB46DF
:10147000F0BDC046A82700201CB20010A0B3001089
:1014800038B2001028B10010F8B30010ECB0001012
:1014900080B2001048B4001098B2001004B40010DC
:1014A000FFFFFF0FA4B200105CB10010B8B3001032
:1014B00078B10010E0B20010E8B3001010B50A4B8C
:1014C0005B68002B04D00A21084800F0CFFB10BD58
:1014D000054C2300064A1021206800F0A9FC0321D6
:1014E0002000FFF7B3FCEEE78C130020C427002098
:1014F000BD0E001010B5064B5B68002B01D00448F0
:1015000010BD044B044A5C21044800F019FEC0469B
:101510008C13002004B3001018B40010ECB00010BD
:10152000F0B5DE4657464E464546E0B58BB08046A0
:1015300016001F00149B9A46159B994616AB1B7804
:101540009B461F2302AA9446634400221A7032E08D
:10155000002809D042461268127B904204D8421EED
:101560004146C9688A5C48E0434B444A40214448AC
:1015700000F0E6FD0798002B75D05B46002B72D07B
:101580004946D04704000D0003000B4300D171E031
:10159000002946DB00F03AFA06000F1E55DB36192B
:1015A0006F41B94202D804D1B04202D90126764235
:1015B000F717002F4FDB43465A68EFF3108472B6DB
:1015C000136859424B41D9B20791002BF8D1BFF3B0
:1015D0005F8F1F3302AA944663440493002303934E
:1015E00002934B4601935346009332003B00404622
:1015F000FFF714FD031EABD1020041464968BFF35B
:101600005F8F00250D6084F31088002B29D01F23E5
:1016100002A98C4663441B78002BABD11202104305
:10162000A9E732003B00361BAF41BB4202D804D1D0
:10163000B24202D901267642F717002FBBDA114BCE
:10164000114A3F21114800F07BFD0E4B0E4A3F210D
:101650000E4800F075FD0B4B0B4A3F210B4800F084
:101660006FFD012040420BB03CBC90469946A2461B
:10167000AB46F0BD0798F6E728B1001004B400109F
:10168000ECB000101CB20010A0B3001038B2001073
:10169000F8B504004268EFF3108572B6136858423B
:1016A0004341D8B2002BF9D1BFF35F8FCBB2226890
:1016B000567BB3421BD10120002848D020698842C4
:1016C0002BD0090AC9B2002B2ED02068007B8342A0
:1016D0002AD8581EE668305C88422BD00020636808
:1016E000BFF35F8F00221A6085F31088F8BD002BCE
:1016F0000DD0167BB3420AD85E00F618033E176879
:10170000BC466644B678002ED6D00120D4E7134BF1
:10171000134A6921134800F013FD8521124B134A27
:101720004900134800F00CFD124B134A40211048A9
:1017300000F006FD1900100000F064FC0028CED176
:1017400012210E4B094AFF31094800F0F9FC2369C8
:101750008B42C4D100232361C1E7C0465CB10010B5
:10176000B8B3001078B1001028B3001064B40010B2
:10177000ECB0001028B1001004B400104CB30010FD
:10178000F0B587B006000F00FEF76DFD00281FD1F1
:1017900006246442E517A4197D41BD4202D803D155
:1017A000B44201D900240025002D14DB04940595D2
:1017B00000F02CF902000B1E13DBA41A9D41002D32
:1017C00017DC14D03000390000F02CF907B0F0BD60
:1017D000234800F04FFD234B234A3F21234800F0CC
:1017E000AFFC204B204A3F21204800F0A9FC002CF0
:1017F000E8D0FFF77FFE0023029301931C4B009378
:10180000049A059BFFF78CFE002818DADAE700231C
:1018100000E00023002BD5D1164B1A68EFF310819E
:1018200072B61368002BFCD0BFF35F8F114B1B689F
:10183000BFF35F8F00221A6081F3108820BF0499E4
:10184000059A0D4B5B6A9A42E3D80B48806A88423E
:1018500003D29A42DBD00123DCE70123DAE7C0465A
:1018600050B300101CB20010A0B3001038B200102A
:101870008D0E0010C427002000400540F8B504007C
:101880000D0000F0C3F802000B1E10DB2000290041
:10189000801859418B4202D804D1824202D90120DA
:1018A0004042C117002908DBFFF76AFFF8BD064B6D
:1018B000064A3F21064800F043FC034B034A3F2100
:1018C000034800F03DFCC0461CB20010A0B300105D
:1018D00038B2001010B5FA2292000023002103F064
:1018E00027FFFFF7CBFF10BD70B584B005000C00DB
:1018F000FFF700FE002302930193194B00932A0087
:101900002300FFF70DFE061E12DC164B5B6A9C429D
:1019100009D8144A926AAA4208D29C4201D00120F6
:1019200002E0002000E0002004B070BD0120FBE7D1
:1019300020BFFFF7DFFD3100FFF7AAFE094B5B6A0E
:101940009C4209D8074A926AAA4207D29C4201D017
:101950000120E9E70020E7E70020E5E70120E3E7D1
:101960008D0E00100040054070B5EFF305833F2059
:1019700018401038EFF3108472B6194B1B68002B17
:10198000FBD0BFF35F8F012319008140154A5163DB
:10199000154A12781500C5402B4214D0114B5D6AD0
:1019A0008300124E9B599D4206D38300104D5B5914
:1019B0008A430D490A7007E00A4A031D9B009958A3
:1019C0009950002300E00023BFF35F8F044A0021F9
:1019D000116084F31088002B00D0984770BDC0467A
:1019E000280100D000400540F8270020D027002023
:1019F000F021002010B50100024A0348FFF7ACF9BE
:101A000010BDC0467CB40010F5270020044B5B6A73
:101A1000034A906A1900536A9942F9D17047C04647
:101A200000400540074B5B6A8B4204D2054B5B6A62
:101A3000FAE7044B5B6A8B4203D1024B9B6A8342F9
:101A4000F7D370470040054070B504000D00FFF764
:101A5000DDFF02000B0020002900801859418B4255
:101A600002D804D1824202D901204042C117002984
:101A700002DBFFF7D7FF70BD024B034A3F2103484B
:101A800000F05EFB1CB2001008B5001038B2001068
:101A900010B5002807DB064B9A6A054B9B6A9B1A18
:101AA0008342FAD310BD0021FFF7CEFFFAE7C0460C
:101AB0000040054070B504000D00EFF3108672B6CB
:101AC0001B4B1B68002BFBD0BFF35F8F002D1CD07E
:101AD000200000F069FD174B83420BD01900200055
:101AE00000F06AFD0121200000F04EFD0123A3401B
:101AF000114A1360A400114BE550BFF35F8F0C4BEC
:101B000000221A6086F3108870BDA2000B4B0021E2
:101B1000D1500122A2400A490B7893430B7005492A
:101B2000200000F073FD0021200000F02DFDE4E70F
:101B3000280100D06919001038600540F02100200C
:101B4000F8270020F0B5DE4600B584B0040015008B
:101B500001921E000293FFF759FF03958E4202D8AF
:101B60004ED185424CD9EFF3108B72B6274B1B68D0
:101B7000002BFBD0BFF35F8F254A17780125A540C6
:101B8000EBB23B431370234B5D63221D920001991E
:101B9000D150A2002049029850501B6A2B4212D10A
:101BA0001C4B1B6C2B4208D00020BFF35F8F174BE0
:101BB00000221A608BF3108823E0184B184AC121C9
:101BC000184800F0BDFAFFF721FF8E4214D802D169
:101BD000039B834210D80E4B1B78BB420ED00D4B9B
:101BE0001D625D631F2004400123A3400E4A136061
:101BF000074B1F701E38D8E70020D6E70120D4E736
:101C0000012004B004BC9346F0BDC046280100D0BA
:101C1000F827002000400540D0270020A0B4001085
:101C200020B50010C4B4001080E200E010B5EFF35E
:101C3000108472B60A4B1B68002BFBD0BFF35F8F7A
:101C400001238340074A136207490A789A430A70BE
:101C5000BFF35F8F024B00221A6084F3108810BD1F
:101C6000280100D000400540F8270020024B9C4688
:101C700061448900016070474000003410B50400E1
:101C8000FFF7C6F801002000FFF7F0FFFF232371E4
:101C9000BFF35F8F10BD10B50400FFF7B9F8010066
:101CA0002000FFF7E3FFFF23237100236371BFF3DD
:101CB0005F8F10BD034B9C46614489000160BFF3F8
:101CC0005F8F70474000003410B504000120FFF71B
:101CD000ADF801002000FFF7EDFF10BD10B50029A1
:101CE0001ED0037B99421BD84B005B18033B046852
:101CF000A4466344002919D0002A1DD0914221D066
:101D0000002A25D0047BA24222D804685000801803
:101D1000033820188170197800291FD11A7010BD5E
:101D2000104B114A6921114800F00AFA104B114A70
:101D300070310E4800F004FA0F4B0E4A71210B4827
:101D400000F0FEF90D4B0B4A7221084800F0F8F93B
:101D5000044B054A6921054800F0F2F941701A70F8
:101D6000DDE7C0465CB10010C0B6001078B10010CD
:101D7000C4B10010CCB60010D0B10010DCB100101E
:101D800070B506000D001400002914D0002A14D0EC
:101D9000806873689847002806D022002900300028
:101DA000FFF79CFF280007E02A0021003000FFF722
:101DB00095FF200000E0100070BD0800FCE7000067
:101DC00010B50023437301338373037BC373012373
:101DD000027B9A4214D9002B0CD0027B934209D883
:101DE0005A00D218033A01688C4662440133DBB2D0
:101DF0005370EDE70B4B0C4A69210C4800F0A0F939
:101E0000002A09D0924207D8016853009A18033A71
:101E10008A180023537010BD024B034A69210348FE
:101E200000F08EF95CB10010C0B6001078B100105F
:101E300010B5017342608360FFF7C2FF10BD000060
:101E400070B50400081E00D170BD002934D0237B7A
:101E5000994231D84B005B18033B22689446634497
:101E60005A78002AF0D02DD0237B9A422AD85300EA
:101E70009B18033B21688C4663445D7800215970B0
:101E8000002825D0237B984222D843001B18033B0F
:101E900021688C4663440021597001002000FFF73F
:101EA0006FFF060029002000FFF7CAFF0200310083
:101EB0002000FFF765FFC7E7084B094A6921094879
:101EC00000F03EF9054B064A6921064800F038F952
:101ED000024B034A6921034800F032F95CB100105B
:101EE000C0B6001078B1001070B505000C001600E7
:101EF000002928D02DD0037B99422AD84B005B18AB
:101F0000033B0268944663445A78002A27D19A78A2
:101F1000002A2AD11978FFF793FF0300002E03D07F
:101F2000EA7B002A27D1EC73002B37D1002C49D053
:101F30002B7B9C4246D82B6861000C19033C1C1972
:101F40000023637070BD224B224A3821224800F0E2
:101F5000F7F8224B224A6921224800F0F1F8224B7F
:101F60001C4A3A211C4800F0EBF8204B194A3B214F
:101F7000194800F0E5F8002A0AD0297B8A4207D8E0
:101F800051008A18033A29688C4662445470CAE7A3
:101F9000124B134A6921134800F0D2F8002B0BD0E2
:101FA0002A7B934208D843001B18033B2A689446B7
:101FB000634400229A70B9E7084B094A692109482D
:101FC00000F0BEF8054B064A6921064800F0B8F853
:101FD00008B60010E0B6001010B600105CB100109A
:101FE000C0B6001078B100104CB6001074B60010E6
:101FF00070B504000A00457B2900FFF775FF607388
:10200000280070BD70B50400002966D0437B8B4268
:102010000ED0002911D0037B99420ED84B005B18DB
:10202000033B0268D0188378002B0CD1002055E0C8
:102030000121FFF7DDFF012050E0294B294A6921EA
:10204000294800F07DF8002B1FD0227B93421CD83A
:1020500025685A00D318033BEA18EB5C8B421AD070
:10206000002B1BD0227B934218D85A00D318033B75
:102070002268D21853788B4216D0002BF0D11B4B1C
:102080001B4A67211B4800F05BF8154B154A692174
:10209000154800F055F84378137007E0104B114ACB
:1020A0006921114800F04CF8437853700023837085
:1020B000437001222000FFF717FF0200617B81427D
:1020C00005D02000FFF75CFE6073012006E00A4B9C
:1020D000074A6D21074800F033F8002070BDC04664
:1020E0005CB10010C0B6001078B1001098B60010B6
:1020F000F4B6001010B60010A0B6001000BEFDE748
:1021000003000A4A1268002A08D0084A1068C31857
:10211000074A9A4206D3054A13607047034A0549A5
:102120001160F2E701204042F7E7C0469C230020FF
:1021300000000420C02A002010B5FFF7DFFF0000D8
:1021400010B582B00C001900002A0CD0084B002AF0
:102150000BD00192009323000200064803F0B2FD69
:102160000120FFF7CBFF044BF1E7034AF1E7C0463C
:102170000CB700101CB700109CAD001070B52B4BB5
:102180002B4A1A602B4B2C4A1A602C4B9A682A4B0C
:102190009343FAD12A4C2B4B9C4202D208CC98474D
:1021A000F9E700F001F9234B274A1A60234B9B689B
:1021B000DB43DB01FAD1254B40229A675A671A6745
:1021C000DA66234C09E0234B234A83212348FFF797
:1021D000B7FF2000FFF752FD0834214B9C4209D283
:1021E0002368002BF5D0012BEDD12000FFF753FD24
:1021F0000834F2E71B4CA1681B4DC022280003F0F5
:102200000BFCA560FEF72FF8002800D000BEFEF7FB
:10221000EFFD00F049FBFFF751F9144C144B9C42C1
:1022200002D208CC9847F9E770BDC04600E00040F4
:10223000BFCDFBFE00F00040FE7F3C0000C0004030
:10224000B81C0020C81C0020FFFFFF0100F0014067
:10225000B01C00204CB70010C4B700106CB70010C1
:10226000B81C002000ED00E000000020C81C002089
:10227000D41C00200FB400B583B0084803F0F0FC74
:10228000049B002B07D005A90191180003F0F8FC6E
:10229000034803F0E5FC0120FFF730FFB0B7001062
:1022A000C0B70010F8B5DE4657464E464546E0B585
:1022B00005000F0092461E000A9B9E424ED3330E2D
:1022C000994636020A9A00233000494601F058FD2B
:1022D00080466C006419A4002E4B9C4664446368DD
:1022E000834200D260602B1FDBB29B46012B3BD99F
:1022F000C0239B012343802212011A60AB00264AAF
:102300009958002905D0506901F0F8FC01300138D6
:10231000FDD153465A0123685A40E0231A408023D6
:102320005B0123431A605A46012A28D980239B0166
:102330002343802212011A60434663604246002311
:102340003000494601F01CFDAD00134B58510120EF
:102350003CBC90469946A246AB46F8BD0F4B104A8E
:102360002D211048FFF7ECFE012FC1D1C0239B01A6
:10237000234303221A60A368DB07FCD5C9E7216861
:10238000794003220A401A60A3680122BA401A4227
:10239000FAD0CBE70080004004230020D4B700101F
:1023A00030B80010E8B7001030B583B00C2000F052
:1023B00015FBFEF713FD00280DD00023092B05D8CF
:1023C00099002D4A2D4888500133F7E72A4B2C4AB3
:1023D0005A6203B030BD2B4B00229A6700F070FBAD
:1023E000294B01221A60274B5B6C012BFBD1274B39
:1023F00003221A60234B9B6B012BFBD10224009418
:102400000533234A0121234800F05CFA0094052398
:10241000214A0121214800F055FA214B0093002266
:1024200002210420FFF73EFF1E4D00952B000022E5
:1024300001210520FFF736FF104C009423000022F5
:1024400000210720FFF72EFF009423000022002127
:102450000820FFF727FF0A4B0093230000220021EA
:102460000920FFF71FFF00952B0000220021062006
:10247000FFF718FFADE7C04604230020006CDC0224
:102480001BB70000008000403CB0004030B000406E
:10249000002F68590080024000389C1C00C0024098
:1024A000001BB700405973078000014BC0587047AC
:1024B00004230020074B9B68103080001950BFF3A5
:1024C0005F8FBFF35F8F044B0021196082F3108888
:1024D0007047C04600ED00E0240100D010B5091A95
:1024E00004394808090B05D14005400D044B184339
:1024F00080B210BD034B044A8B210448FFF720FE35
:1025000000E0FFFF40B8001020BA001050B80010E3
:1025100010B5091A04394C08090B08D14905490DB1
:10252000064A11430180064B2343438010BD054BEF
:10253000054A93210548FFF703FEC04600F0FFFF60
:1025400000F8FFFF40B800102CBA001050B800107F
:1025500001238340034A10681840431E9841C0B2CB
:102560007047C04600E100E0002904D0034B18602A
:10257000034B18607047034B1860FBE780E200E0F4
:1025800000E100E080E100E010B501238340180085
:10259000FFF7EAFF10BD000001238340014A1360EA
:1025A0007047C04600E200E0024B9B68103080009C
:1025B000C058704700ED00E070B504000D00EFF367
:1025C000108672B60C4B1B68002BFBD0BFF35F8FDD
:1025D0002000FFF7E9FF094B984201D0A84205D13E
:1025E000320029002000FFF765FF70BD044B054A4B
:1025F0006E210548FFF7A4FD240100D0CD01001095
:1026000090B8001004BA001050B80010F0B5CE46D3
:10261000474680B583B006000D00EFF3108872B610
:10262000574B1B68002BFBD0BFF35F8F554B9A684D
:1026300034001034A300D758534B9F4207D0AF4209
:1026400000D19BE00197514BFB1A2F2B09D9424631
:1026500039003000FFF72EFF03B00CBC90469946BE
:10266000F0BD3000FFF774FF814600213000FFF716
:102670008BFFBFF35F8FFDF7F6FD002801D084428A
:1026800019D10123019C9C43414923003F4A9B1AD5
:102690005B415943090D49B20022A368AB4212D0F5
:1026A0000622A256002A0DDB53009B189B00220035
:1026B000364CE418F1E71E21364B374AFF313748D4
:1026C000FFF73EFD2200AB4251D106256557002D94
:1026D00039DB6B005B199A002C4B9B189A68A2603F
:1026E000DA79E27106229A56A2719B795BB2002BCD
:1026F00010DABD200002A0806B005B199B00234A0A
:10270000D318274A11789971157049463000FFF7A0
:102710003BFF9CE7201D6B005B199B001B4A9B182D
:102720001A1D9B88D90A1C2907D159054915023160
:1027300049005118FFF7D2FEDDE71A4B1A4A9921DA
:102740001648FFF7FDFC00280CD1002A08D0FF2313
:102750009371164B9380124B1A78A2711970D4E7BB
:10276000094FF8E7201D1249FFF7D2FECDE7A92156
:10277000104B094A49000948FFF7E2FC024F66E79F
:10278000240100D000ED00E0CD010010B4130020C2
:10279000AAAA0000A4B9001054BA001050B8001042
:1027A000F62700208CB9001044BA001000BDFFFFCE
:1027B000EE130020C8B90010F8B504000126064346
:1027C0002D4BF31A2F2B28D8FDF74DFD00282BD0C9
:1027D000EFF3108772B6294B1B68002BFBD0BFF3B9
:1027E0005F8F274D22002449521A524155432D0D27
:1027F0006DB2244B9B6880001B58B3421BD0002253
:10280000032A32D853009B189B001B49CB189B7995
:102810005BB2AB421FD00132F2E778211A4B1B4A60
:10282000FF311B48FFF78CFCBD211A4B174A4900AA
:102830001748FFF785FC134B9B68174A1A50174B34
:102840001A78A2711D70BFF35F8F0C4B00221A60C3
:1028500087F31088F8BD08005300991889004118C3
:10286000FF268E710E4A8A80E9E78C210D4B074ABC
:10287000FF310748FFF764FCB4130020240100D0A7
:10288000AAAA000000ED00E0D0B9001068BA00105C
:1028900050B80010F8B90010CD010010F627002044
:1028A00000BDFFFF98B600100022044B02E004496F
:1028B00002C30132072AFAD97047C04600E400E09B
:1028C00080808080F0B5CE4600B504000E009146B1
:1028D0001F000C2001F012FA050043011B1A990198
:1028E000C91AC90009188901484601F007FA02000F
:1028F000103A98235B009A4233D87B1E062B36D8B9
:10290000069B013B062B32D8069B9F4235D34B4694
:102910001A09AA4237D33F04069B1D032F4323689D
:10292000002B36DB234B9C4241D080256D01224B8E
:102930001D60224B1D60224A92682B009343FAD1FE
:102940002660A060221DC0239B01134321221A6030
:102950002268002AFCDAE76008221A6004BC91466B
:10296000F0BD184B184A16211848FFF7E9FB184B21
:10297000154A19211548FFF7E3FB164B124A1F2190
:102980001248FFF7DDFB144B0F4A22210F48FFF7D7
:10299000D7FB22683F231340B342C3D1A3681B0572
:1029A0001B0D8342BED1E368002FBBD1D6E7802543
:1029B000AD01BCE700C0024000E0004000F0004074
:1029C00000C0004084BA001060BB0010A0BA001024
:1029D000E0BA00102CBB001044BB001080239B0009
:1029E0000343014AD362704700800540024B1A68D6
:1029F000024B5A607047C046A02700200080054067
:102A000010B50200164B8020C0051860154B164803
:102A1000186000290AD0154BE021C9041960002A6A
:102A200009D1124B802212061A6010BD0C4BE02116
:102A3000C9041960F3E75001801A80008018000172
:102A40000B4B186080235B04984202D3084B094A61
:102A50001A60FFF7CBFF054B8022D2051A60E4E72E
:102A600000B0054008200140FCFF010000A0054027
:102A7000A0270020FFFFFF0010B5030010000C4A44
:102A80008024E4051460002B0DD001221343094A71
:102A9000094CD461094C5C4014625162936200217C
:102AA000FFF7AEFF10BD034B0022DA61F7E7C04627
:102AB00000B0054000800540D3C007B02D3FF84F5F
:102AC000064BAA2212011A602F22DA60044B054A33
:102AD0001A60024B5B68002BFBDA70470040024033
:102AE0000060024000B0FA009A4200D28854704759
:102AF000704710B5002802D00B684968984710BD90
:102B0000010000200A681378303BDBB2092B08D89B
:102B100083001B185B00501C08601078C018303808
:102B2000F0E77047F0B5DE4657464E464546E0B5FD
:102B300083B093461F000C9B9A460D9C0E9B9946B2
:102B40000F9B9B0703D0B8460F00060022E00192BE
:102B5000A34688464E46B9460700B44207D2551CE4
:102B60004B4641462020B84701342A00F5E73D0096
:102B70004F465C46019B9B46B1464646B8463700E9
:102B80002E0007E0013C551C5346185D43463900B2
:102B9000B0472A00002CF5D135003E0047460F9B78
:102BA0009B0707D4100003B03CBC90469946A24650
:102BB000AB46F0BDB0464E46B9462F005D46531BAE
:102BC000B342EFD2541C4B4641462020B847220066
:102BD000F5E7F0B5CE46474680B585B094469846B1
:102BE0000C9D0D9C0EAB1B789946109A119B129E62
:102BF000B7071BD4002B08D0F70706D54F46002F88
:102C000002D10C37374200D0013B944208D21F2C2E
:102C100006D830272F550134F7E730272F550134D8
:102C2000F70703D59C4201D21F2CF6D9F70615D51C
:102C3000770505D4002C03D0944224D09C4222D0A6
:102C40000F9A102A2BD00F9A102A30D00F9A022AEE
:102C500035D01F2C02D830222A5501341F2C05D81C
:102C60004A46002A31D02D222A5501340396029378
:102C70000194009543466246FFF754FF05B00CBC33
:102C800090469946F0BD621E012C06D00F9F102F72
:102C900001D01400D4E7023CD2E71400D0E7B2061A
:102CA000D1D41F2CCFD878222A550134D1E7B206CF
:102CB000CCD51F2CCAD858222A550134C9E71F2C5D
:102CC000C7D860322A550134C3E7720703D52B22D7
:102CD0002A550134CAE73207C8D520222A550134C3
:102CE000C4E7F0B5DE4657464E464546E0B593B0DC
:102CF00081468A46089209931CAB10CB1B789B46F1
:102D00001E9D219B9846002C03D1102342469A43D6
:102D100090468023DB0046461E4042461A4212D0AF
:102D2000002C22D000260EE03033D9B2771C0AAB3B
:102D300099552900200000F0E1FFAC4216D31F2F67
:102D400014D83E0004002900200000F0D7FFCBB2C9
:102D5000092BE9D94246920605D54121C918C9B2C5
:102D60000A39C9B2E2E76121F8E727004346069332
:102D7000209B05931F9B049303955B460293019749
:102D80000AAB0093099B089A51464846FFF721FF7A
:102D900013B03CBC90469946A246AB46F0BDF0B598
:102DA000DE4657464E464546E0B595B00890099137
:102DB0000A920B931E9E1F9C20AB1B789B46229B66
:102DC0009946239D269B9A463300234303D1103313
:102DD00052469A4392468023DB0057461F40524694
:102DE0001A4219D0330023432DD0002714E030338A
:102DF000DAB27B1C98460CABDA554A462B00300001
:102E0000210000F0BDFFA5421FD819D043461F2B5B
:102E10001BD8474606000C004A462B003000210014
:102E200000F0AEFFD3B2092BE1D95246920605D588
:102E30004122D218D2B20A3AD2B2DAE76122F8E7D6
:102E4000B145E3D901E00023984653460693259BFC
:102E50000593249B04934B4603935B46029343469E
:102E600001930CAB00930B9B0A9A09990898FFF702
:102E7000B0FE15B03CBC90469946A246AB46F0BDAC
:102E8000F0B5DE4657464E464546E0B591B083461E
:102E90008A460C9298461A9C08941B9D099522001C
:102EA0002B002000290001F002FA002800D0E5E004
:102EB00001225242D34B2000290001F0F3F90028EF
:102EC00000D0DBE001225242CF4B2000290001F06C
:102ED000D3F9002800D0D1E000220023089D28006B
:102EE000099E310001F0C8F9002800D0DDE0089803
:102EF0000999069007918023DB001E9A1A400D92D3
:102F00001E9A1A4201D106231C93069807990400C1
:102F10000D000A000600024300D1CDE0080D400577
:102F2000400DBA4CA44660440A03120BB84B13433D
:102F30001F0001F0CFF9B74AB74B01F052F9B74A79
:102F4000B74B01F027F904000D000022B54B30000B
:102F5000390001F016F9B44AB44B01F042F902000D
:102F60000B002000290001F015F901F0CBF9814692
:102F700001F0B0F904000D00AD4AAE4B01F031F99B
:102F80000022AD4B01F006F901F0BCF90600AB4A96
:102F9000AB4B2000290001F024F904000D003000A3
:102FA00001F098F9A74AA84B01F01BF902000B00A9
:102FB0002000290001F0E5F804000D0002000B00DC
:102FC00001F00FF90A900B91A04BF31800261F0592
:102FD00022002B002000290001F0DCF80E900F9158
:102FE00022002B0000208021C90501F0CAF804004E
:102FF0000D000022964B0A980B9901F0D4F800229C
:10300000944B01F0C7F802000B000A980B9901F0ED
:10301000CAF80022904B01F0BDF802000B000A989C
:103020000B9901F0C0F802000B002000290001F00C
:10303000B1F802000B000E980F9901F0B4F80022CD
:10304000734B01F0A7F832003B0001F0CAF806000C
:103050000F0004000D00069A079B01F023F90028D9
:103060002CD001235B429C46E1440022794B300086
:10307000390001F098F804000D001FE01E9B049336
:103080001D9B03931C9B0293089A099B009201933A
:1030900043460C9A5146584600F0F8F811B03CBC33
:1030A00090469946A246AB46F0BD069580231B0686
:1030B0009C46664407961EE7002399464B466333B9
:1030C000C62B1FD804261E9B1B0527D52B00234388
:1030D00010D0624A624B0698079901F0DBF800288D
:1030E00000D183E000225F4B0698079901F0C4F8F5
:1030F00000287BD01C9B4B4506DD4A46981A431E90
:103100001C9303E00526DEE700231C938023DB00ED
:103110001E9A1A431E920026002399461D9B9E422A
:103120006ED29F1B02231E9A1A400A921E9A1342C5
:1031300002D0002E00D000274B46002B07D02200E3
:103140002B000698079901F02EF8069007910022AF
:1031500000230898099901F08FF8002800D085E035
:10316000414B1E9A1340049303971C9B0293069BAA
:10317000079C0093019443460C9A5146584600F030
:1031800085F8002E00D189E71E9B9B067AD5452540
:10319000441C4346020051462800D8474B46DA17E4
:1031A0009B18534005220592013E0496002203928B
:1031B0000A3202924A46D00F019000934346220001
:1031C00051465846FFF78DFD0A9B002B00D165E75D
:1031D00002005F460C9E1D9D931BAB4254D2541CB3
:1031E000434651462020B8472200F5E71C9B002BA0
:1031F00094D00D9B002B91D01C9B013B1C938DE721
:1032000000278FE7FFFFEF7FFFFFEFFF01FCFFFFCE
:103210000000F03FFB799F501344D33FB3C8608B4D
:10322000288AC63F0000F83F61436F63A787D23FFB
:1032300071A379094F930A400000E03F1655B5BBD2
:10324000B16B0240EF39FAFE422EE63FFF03000069
:1032500000002C4000002440000018402D431CEBCF
:10326000E2361A3F80842E41FFF7FFFF069C079D40
:103270002200290080200006844661440B0006924B
:1032800007936DE7652583E7100007E7F0B5DE4695
:1032900057464E464546E0B595B006900791934691
:1032A0009946209F1E9A1F9B1000190000F0FFFFF7
:1032B000002831D101225242BF4B1E981F9900F0C5
:1032C000DBFF002837D101225242BC4B1E981F99C8
:1032D00000F0E8FF00283DD10022B94B1E981F994D
:1032E00000F0E0FF002850D10022B64B1E981F9935
:1032F00000F0C2FF002848D1002200231E981F9929
:1033000000F0BAFF002850D100239846229B5B05AD
:1033100000D4B6E0002458E0229B0393219B029343
:1033200003230193A84B00934B465A4607990698EE
:10333000FFF7F8FB0EE1229B0393219B02930423EA
:103340000193A24B00934B465A4607990698FFF704
:10335000E9FBFFE00423229A1A4022990B4210D085
:103360009B4B002A0FD004222299039121990291AC
:10337000019200934B465A4607990698FFF7D2FBF5
:10338000E8E0944BEDE70322EEE7229B0493219BB8
:10339000039302971E9B1F9C009301944B465A4631
:1033A00007990698FFF76CFDD4E01E9A1F9B00203A
:1033B000002100F0E6FE1E901F9101239846A5E72C
:1033C0000CAB30221A55013F01341F2C01D8092FB4
:1033D000F6D81E981F9900F095FF050000F07AFFBF
:1033E00002000B001E981F9900F0CBFEFA007A4BEA
:1033F0009B181A685B680A920B9300F0F2FE089023
:10340000099100F0A3FF060000F060FF02000B002E
:103410000898099900F0B5FE0890099100226F4BB9
:1034200000F040FF00282ED00136300000F04EFFA3
:1034300002000B000A980B9900F024FF002801D02D
:1034400001350026002F2CD1280000F043FF020098
:103450000B001E981F9900F094FE06000F0000223A
:103460005E4B00F009FF002842D100225B4B300088
:10347000390000F017FF00283AD1EB0738D50135A5
:1034800036E0062746E70022544B0898099900F0D9
:10349000F3FE0028D6D1002E01D0F307D2D5013695
:1034A000D0E7AA461F2C11D8013F0A21300000F0B6
:1034B00025FC651C30310CAB19550A21300000F099
:1034C0001DFC092E26D906002C00EBE7554604E02A
:1034D0000CAA302111551F0001341F2C02D87B1E6D
:1034E000002FF5D11F2C03D80CAB2E221A55013416
:1034F0001F2C14D80A21280000F0D8FB661C30319C
:103500000CAB19550A21280000F0D0FB051E05D090
:103510003400EDE72B0055461C00DEE734000323A2
:10352000229A1340012B1CD01F2C06D84346002B97
:1035300032D00CAB2D221A550134229B0393219BD0
:10354000029301940CAB00934B465A460799069898
:10355000FFF7E8FA15B03CBC90469946A246AB4648
:10356000F0BD219B002B13D04346002B02D10C331E
:1035700013420FD0219B013B2193190003E00CABB8
:1035800030221A5501348C42CED21F2CF7D9CBE70A
:103590002199F8E72199F6E7229B5B0704D50CAB4C
:1035A0002B221A550134C8E7229B1B07C5D50CAB4B
:1035B00020221A550134C0E7FFFFEFFFFFFFEF7F26
:1035C00065CDCD4165CDCDC178BB00107CBB001071
:1035D00070BB00106CBB001068BD00100000E03F25
:1035E000F0B5DE4657464E464546E0B593B08246B6
:1035F0008B4690461193002900D1ECE200275546F6
:10360000119B1878002800D1E8E2252809D07C1CFD
:1036100043463A005946A847119B013311932700AE
:10362000EEE70133119300241DE00B00303BDBB2C9
:10363000092B37D92A293AD000230A93119B1A78EB
:103640002E2A44D000239A46119A1378683BD9B2A7
:10365000122900D980E08B00CB49CB589F4601232B
:103660001C4301321192119A11780B00203BD8B201
:103670001028DAD88300C548C3589F4602231C434C
:1036800001321192EFE704231C4301321192EAE761
:1036900008231C4301321192E5E710231C43013239
:1036A0001192E0E711A8FFF72BFA0A90C6E71C9BDE
:1036B0001A1D1C921868002804DB0A90119B013324
:1036C0001193BBE702231C4343420A93F6E780228F
:1036D000D20014435A1C11925A781300303BDBB2CB
:1036E000092B04D92A2A07D000239A46ACE711A84F
:1036F000FFF706FA8246A7E71C9B1A1D1C92186862
:10370000002804DB8246119B013311939CE70020C3
:10371000F8E780235B002343511C119152786C2AF7
:1037200001D01C0018E0C0239B001C430131119103
:1037300012E080232343511C11915278682A01D052
:103740001C0009E0C0231C430131119104E08023D7
:103750005B001C4301321192119B18780300253B3A
:10376000DAB2532A00D92CE29300894AD3589F46F3
:1037700080239B001C4301321192EDE780235B0004
:103780001C4301321192E7E7782809D0582838D035
:103790006F2838D0622838D010239C430A2600E0D6
:1037A0001026582833D0692803D0642801D00C2271
:1037B0009443630501D50122944369282AD06428E3
:1037C00028D0A30500D59FE0E30500D5B8E0630647
:1037D00000D4CAE01C9A111D1C911168FF220A40F6
:1037E00005940A9B04935346039302960023019386
:1037F000009243463A0059462800FFF772FA070044
:1038000027E01026CDE70826CBE70226C9E72022CD
:103810001443C8E7A30520D4E30550D4630666D556
:103820001C9A111D1C911168FF220A40D317D11850
:10383000594005940A9B0493534603930296D20F72
:103840000192009143463A0059462800FFF749FA91
:103850000700119B01331193D2E61C9BDA1D07214F
:103860008A43110008311C91116853689C46DB178C
:103870000C930D930C9A0D9B100048400E906246DD
:1038800053400F930E980F990C9A0D9B801A9941F3
:103890000E900F9108940A9B079353460693049643
:1038A000002305936346DA0F02920090019143468C
:1038B0003A0059462800FFF772FA0700C9E71C9A38
:1038C000111D1C911268D317D118594005940A9BF9
:1038D0000493534603930296D20F019200914346FC
:1038E0003A0059462800FFF7FCF90700B1E7230624
:1038F00005D51C9A111D1C910023D25E96E71C9AD7
:10390000111D1C91126891E71C9BDA1D07218A4347
:10391000110008311C9108940A9B079353460693A3
:10392000049600230593029313685468009301944E
:1039300043463A0059462800FFF731FA070088E766
:103940001C9A111D1C9105940A9B049353460393E2
:103950000296002301931368009343463A005946A8
:103960002800FFF7BEF9070073E7230606D51C9A67
:10397000111D1C9112681204120C31E71C9A111DC2
:103980001C9112682CE7C04684BB0010D0BB00100D
:1039900014BC001046281AD01C9B073307229343FF
:1039A0001A0008321C9204940A9A03925246029218
:1039B0005C681B680093019443463A00594628000E
:1039C000FFF764FC0700119B0133119318E62023D5
:1039D0001C43E1E7672801D0472802D180231B015F
:1039E0001C43452801D0472801D120231C431C9BA0
:1039F0000733072293431A0008321C9204940A9A50
:103A00000392524602925C681B68009301944346FD
:103A10003A0059462800FFF733FA0700119B01339B
:103A20001193EDE502231A002240924623421FD053
:103A300001241C9B1A1D1C927A1C9146187843463F
:103A40003A005946A8475346002B16D1119B013323
:103A500011934F46D4E5561C434659462020B8479B
:103A6000230032005C1C9D42F5D83D001700E0E7C2
:103A700001233A002F000A9DF4E74A46A9460A9D11
:103A800006E0571C434659462020C84734003A00F8
:103A9000661CA542F5D84D469146D7E71C9B1A1DDA
:103AA0001C921B6899465346002B00D1013B4E46A1
:103AB00001E0013613003278002A02D05A1E002B92
:103AC000F7D14B46F21A10928023DB0026001E40ED
:103AD0001C4203D0524501D95346109302231A00C9
:103AE00022400B92234205D03A0037004C46A946AB
:103AF000554620E03A00109B5F46B3462E0006E094
:103B0000551C434639002020B04723002A005C1C86
:103B10000A999942F4D835005E46BB4610943700A6
:103B20004C46A946554606E01D000134561C434646
:103B30005946C84732002078002804D0002FF4D01E
:103B40006B1E002DF0D117004D460B9B002B03D1AF
:103B5000119B0133119353E50A9F109B06E0561CFD
:103B6000434659462020A847230032005C1C9F4250
:103B7000F5D81700ECE721231C431C9B1A1D1C924F
:103B80001B68009305940823049353460393102362
:103B900002930023019343463A0059462800FFF759
:103BA000A0F80700119B0133119329E57C1C4346C3
:103BB0003A0059462520A847119B0133119327004D
:103BC0001EE57C1C43463A005946A847119B013329
:103BD0001193270014E50B4B9A460FE5AA4647457B
:103BE0000DD343465A1E434659460020D04738005D
:103BF00013B03CBC90469946A246AB46F0BD3A0095
:103C0000F1E7C046F12A001000B583B0009313001D
:103C10000A0001000248FFF7E3FC03B000BDC04604
:103C2000E92A001000B585B00290039101210093AC
:103C300013004A4202A90248FFF7D2FC05B000BDBA
:103C4000F32A001001480421014B184700140020FA
:103C5000753C001010B5010018231B881422108831
:103C6000984710BD10B5010018231B881622108834
:103C7000984710BDF0B5C64600B507000E000025F8
:103C80000123984600E00135B5420AD2AC003C1948
:103C90002068FFF7DFFF20600028F4D1002398465A
:103CA000F1E7404604BC9046F0BD0000124A936F15
:103CB0009B0815D29066D166002905D0FFE7FFE783
:103CC000FFE7516F106F704704B580210906C217D6
:103CD0005140002800D0C84306F0FAFF002104BD7F
:103CE000F0B5146E556E576F166FFFF7E3FF14664D
:103CF000556657671667F0BD000000D0114A936FF4
:103D00009B0813D210665166002905D0FFE7FFE734
:103D1000FFE7516F106F704704B5002801D00020F5
:103D2000C04306F0D5FF002104BDC046F0B5146EB7
:103D3000556E576F166FFFF7E5FF146655665767A8
:103D40001667F0BD000000D094464E4A926F92086C
:103D5000624601D230E0C046F0B54A4EB56F6D08FC
:103D6000FCD3346E756E776F366F00F025F894468D
:103D7000444A14665566576716676246F0BDC046EA
:103D80009446404A926F9208624601D258E0C0467B
:103D9000F0B53C4EB56F6D08FCD3346E756E776F21
:103DA000366F00F04DF89446364A146655665767EC
:103DB00016676246F0BDC046002B24DB11D00029F7
:103DC0003EDA00B5C943404200D1013100F038F875
:103DD000C943404200D10131DB43524200D101339B
:103DE00000BD002AEBD1002801D1002905D0002018
:103DF000C90FC90701D1C043410800B506F040FF13
:103E00000022002300BD00B500290ADBDB4352423B
:103E100000D1013300F014F8C943404200D1013110
:103E200000BDC943404200D10131DB43524200D1C1
:103E3000013300F005F8DB43524200D1013300BDED
:103E4000002923D1002B18D1002A0CD0BC460D4FDD
:103E500038667A6600210023FFE7FFE7FFE77A6F05
:103E6000386F67467047002801D00748010000B549
:103E700006F006FF0022002300BD02000B00002018
:103E800000217047000000D0FFFFFFFF002B00D093
:103E9000BFE0130C28D1002AE7D080B4114F396657
:103EA0007A66FFE7FFE730B4040C7B6F396F1B04C1
:103EB00023433B667A66FFE7FFE7FFE7C04684B22D
:103EC0007B6F3D6F1B0423433B667A66FFE7FFE78A
:103ED000C04600232C042D0C7A6F386F00196941FD
:103EE000B0BC7047000000D0F0B594460025140E19
:103EF00001D112020835140F01D112010435940FBB
:103F000001D192000235D40F01D152000135D40BFA
:103F10000134254F7C66254C3C660E0C93B2FFE7BE
:103F2000FFE7FFE73C6F6643360C7703BE467343FB
:103F3000DF0B5B04C01AB941130C7343DB18C91AB9
:103F4000CE086643360CB64493B273431F0F1B0171
:103F5000C01AB941130C73431F0B1B05C01AB9419A
:103F6000860D8F023E436643360C092D24DB520A30
:103F70007243801A7703460A6643360C16235B1B8E
:103F8000DE40DF40BF1964466643821B704604353D
:103F900006330100D940A840C01900D30131A24224
:103FA00006D20023F0BD0000000000D0FFFFFFFF9D
:103FB000121B0130F3D3F1E709277F1BFE40644653
:103FC000A2B27243801A00D20139220C7243130C40
:103FD0001204821A99410B00704604351337010010
:103FE000F940A840801900D30131002B02D1A24230
:103FF0000AD2F0BD013000D30131121BFAD2013BCD
:10400000F8D1A24200D2F0BD013000D30131121B21
:10401000F7E7F0B51C0C00D080E00CB400251C0ABA
:1040200004D11B02160E3343120208351C0B04D1B7
:104030001B01160F3343120104359C0B04D19B0066
:10404000960F334392000235DC0B02D192185B418C
:1040500001351C00971864410134464F7C66464C7C
:104060003C660E0CFFE7FFE7FFE7C0463C6F664388
:10407000360C7703BE4697B27743C01B00D2013996
:10408000C01B00D201399FB27743C91BC91B170C53
:1040900077437E04FF0B801BB941CE086643360C84
:1040A0000C2D33DBB644120B1F053A431B0B97B2A2
:1040B0007743C01B00D201399FB27743C91B170C4D
:1040C00077433E043F0C801BB941860D8F023E436F
:1040D000664329277F1BFE400C3D7746AF40BF1942
:1040E00030BCA2B2ABB272437343801A9941220C26
:1040F0007243130C1204801A994102000B0001371D
:10410000001BA941F9D2781E0021F0BD0C277F1BAE
:10411000FE4077467F0BAF40FF19E0E700245D1CAF
:1041200007D0144F7D663966FFE7FFE7FFE7FFE73B
:104130003C6F95B29EB265436643401BB141150C7E
:104140001E0C6543664336042F0C3E432D04401B72
:10415000B141994204D202000B0020000021F0BDC1
:1041600001D19042F7D3801A994101349942F2D398
:10417000F6E70000000000D0FFFFFFFF484041408D
:10418000484018B41B4B5B68FC46019308BD04DF34
:104190002B4E001018B4174B1B68FC46019308BD4A
:1041A00000DF354E00109446134A926F920809D2F0
:1041B000624618B40F4BDB68FC46019308BD0CDF68
:1041C000ED5000100C4AF0B5146E556E576F166F17
:1041D0006246FFF7EEFF084A146655665767166792
:1041E000F0BD18B4034B9B68FC46019308BD08DF83
:1041F000914F0010FC270020000000D0FFB5504078
:104200004240504059404B40594000E0FFB5154FE7
:104210004C00640D03D0BC4204D10C0314D8002020
:10422000090D09055C00640D03D0BC4204D11C03D8
:104230000AD800221B0D1B0501264B4009D44B4018
:1042400003D58B4200D18242FFBD9942FCD19042FE
:10425000FFBD0B43DB1803431343F5D0C943491893
:10426000FFBD0000FF07000000B5FFF7CFFF01D042
:10427000002000BD012000BD00B5FFF7C7FF804151
:1042800000BDC04600B5FFF7C1FF01D9002000BD49
:10429000012000BD00B5FFF7B1FF01D9002000BD2E
:1042A000012000BD00B5FFF7A9FF804100BD01203E
:1042B00040054A00121804D85A00121801D80020EC
:1042C000704701207047002070470000002100283F
:1042D00005D17047C1174840401AFAD0C90713B535
:1042E000064B1B6898470CBC441CA2401005120BDF
:1042F0000349091B09051943114310BDC0270020BC
:104300001F04000010B54C00620D8023D218DB00A2
:10431000D21A5B057E2A10DD9E3A13DACC17090308
:10432000490819435242D140640001341532202A11
:1043300005DAD0400843604310BD002010BD084698
:10434000604310BDC80FC018013810BD18B4044B2D
:104350005B6AFC46019308BD24DF9D5200100000FB
:10436000FC27002018B4044BDB6FFC46019308BD0A
:104370007CDF1D5300100000FC27002018B4044B04
:10438000DB6CFC46019308BD4CDFC95400100000F3
:10439000FC27002018B4044B1B6DFC46019308BD9C
:1043A00050DF655500100000FC27002070B5132376
:1043B0001C78012C0CD0012C13DC022C02DC1F4ACF
:1043C0001F4B9A641F48FFF745FC1F4B186070BDD8
:1043D00000231F2BEFD899001848194A8850013341
:1043E000F7E71A48FFF73EFC05001948FFF73AFCCB
:1043F000023803789B007F2B19DD802229001048AA
:1044000001F00AFB022CD8D1124B1A88B5231B02EB
:104410009A4209D1104B1A88104B9A4204D1104B82
:104420001A88104B9A42C8D00020FDF723FF0E4B8C
:104430000E4A32210E48FDF783FEC046F14D0010B2
:10444000FC2700204C330000C0270020534400000C
:104450005346000054380000D83800004946000098
:104460009C38000059460000B8BD001064BE001022
:1044700018BE001070B504000D001600012A0ED001
:10448000D20F92195210FFF7F5FF02000B00FFF751
:10449000A8FEF30703D522002B00FFF7A2FE70BD94
:1044A000F0B5D6464F464646C0B588B00092019357
:1044B00002000B000E0D7605760D8B4FB846B0440A
:1044C0008A4FBF1B002E06D0894CA64203D0002085
:1044D000390580185941FFF75DFF864A864BFFF783
:1044E00062FE029003910022844B04000D00FFF74E
:1044F000D9FE00280AD00022814B20002900FFF7B6
:1045000040FE029003917F4B9846B0444346002BF7
:1045100012D000227C4B00980199FFF7BBFE0028C7
:1045200016D04346002B10DB0020784908B01CBC95
:1045300090469946A246F0BD009A019B02980399C5
:10454000FFF74FFE00F018FAF0E700200021EDE73A
:1045500000226F4B00980199FFF794FE002808D0C5
:104560004346002B02DB00200021DFE700206749E3
:10457000DCE70098019900F0B1F906000F00020095
:104580000B0000980199FFF7FCFD009001911A22A1
:1045900000F07CF900F0A2F904000D0002000B000D
:1045A000090D4905480D002913D05149884210D002
:1045B0001A3800280ADD5749884200DC84E0EB0FF6
:1045C000DB070024514A1A43150002E00024EB0FD8
:1045D000DD0722002B0000980199FFF7D2FD06901D
:1045E000079130003900FFF78DFE814603004146F8
:1045F0004B439A464046FFF76DFE22002B00049085
:104600000591FFF7EEFD06000F0000F067F90400CA
:104610000D00FFF777FE8046D04422002B003000CB
:104620003900FFF7AEFD04000D00069A079B0498C1
:104630000599FFF7D6FD02000B0020002900FFF7C7
:10464000A9FD049005914846FFF744FE029A039B9A
:10465000FFF7C7FD04000D0000F040F906000F0051
:10466000FFF750FE804432003B0020002900FFF796
:1046700088FD049A059BFFF78DFD04000D00009A4C
:10468000019B02980399FFF7ACFD22002B00FFF776
:1046900081FD00F071F904000D000B0D5B055A0D52
:1046A000002B00D142E7124B9A4200D13EE7424430
:1046B000002A0EDD174B9A420FDDCB0FDB070020DF
:1046C000124A1A43110031E70024134DA4185D412A
:1046D0007FE70020CB0FD90728E7002043461905C4
:1046E0000019694122E7C04601FCFFFFFF030000FB
:1046F000FF070000EF39FAFE422EE63F0000E03FE0
:104700000000F03F02FCFFFF0000B0400000F07F1F
:104710000000B0C0FE070000000060FEF0B585B0EC
:1047200003900C0001921D0002900F1E49DA1B0D30
:104730005B055B0D4E4A9B1839D43422D31A36D40C
:10474000543A991820D41F328A4001214942994095
:104750000198884301002800904302000A4326D1B3
:10476000342B06D0203A9A1817D42B00D340DB07FD
:104770001DD50298802424063919019A2B00FFF7D1
:10478000CDFF0B1919001AE02021C91A012252424B
:104790001000C8409A400243D7E72022D21A2900CD
:1047A00091400A000199D9400B001343DFE70298BA
:1047B00080231B06F918019A2B00FFF7AFFF05B005
:1047C000F0BD01981900FFF79DFD0600230D5B0564
:1047D000580D002B07D0274B984204D023031B0B06
:1047E000029F1F430DD0002E3ED033002033402BBC
:1047F00033D8002E27DB320003982100FFF73AFE62
:10480000DDE71B4B9C46604480231B019E4204DA7B
:10481000194B9E4202DA184E00E0164E7043174BB9
:10482000C318002B09DD164A934209DC0024050554
:104830000020144900196941C1E700200021BEE7AA
:1048400000201149BBE7039A230000200D49FFF720
:10485000AAFC03900C007642CDE7019A2B00039846
:104860002100FFF71DFEAAE700200649A7E7C04682
:1048700001FCFFFFFF07000000F8FFFFFF0300003F
:10488000FE0700000000F03F0000F07F30B50B0D88
:104890005B055C0D002B14D00D4B9C4211D01419FC
:1048A000002C09DD0B4B9C420CDDC90FC90700240D
:1048B00009480843050002E00024C90FCD07200085
:1048C000290030BD0024150524184D41F7E7C046E6
:1048D000FF070000FE0700000000F07F70B50B0D21
:1048E0005B055B0D224A944663445A1C26DB5A1C26
:1048F0002AD03422D21A002A1FDD3324E41A2023BE
:104900005B42E51827D40126AE4033000125A540BF
:104910002A0012184B4120214942651821D4022651
:10492000AE4031000225A5402800002544428D41BB
:104930001600264030002B40190070BD0022C90F20
:10494000CB0710001900F8E7CB0FDB070020094A5E
:104950001A431100F1E720252D1B0126EE403300FC
:10496000D4E720252D1B0226EE403100DAE7C046B1
:1049700001FCFFFF0000F03F70B505000C000A0DC0
:10498000284B9A4247D00022274B28002100FFF7EE
:1049900079FC002842D10022244B28002100FFF797
:1049A00079FC002802D00020214939E028002100AC
:1049B000FFF794FFFFF7A6FC0600FFF78BFC020051
:1049C0000B0028002100FFF7DCFB1A4A1A4BFFF707
:1049D00008FCFFF7D3FC04000D000B0D5B055A0D1E
:1049E000002B1DD0154B9A421AD0B218002A09DDAF
:1049F000134B9A420ADDCB0FDB0700200C4A1A4307
:104A000011000DE00020CB0FD90709E0002031058F
:104A10000019694104E00020002101E0002000218C
:104A200070BDC046FF0F00000000B0C00000B040E5
:104A30000000F07FEF39FAFE422EE63FFF0700004C
:104A4000FE07000010B5FFF7A5FC024A024BFFF776
:104A5000C8FB10BD0EE526157BCBDB3FF0B583B060
:104A600005000C0001921F000022C04B0095280099
:104A70002100FFF7F9FB002800D058E13D0D6B0540
:104A80005E0D002B00D157E10022B94B00982100A8
:104A9000FFF7EAFB002803D0B64B9E4200D14EE15F
:104AA000220D5305590D002B75D1002F37DBB24B6A
:104AB000F61800D546E134239B1B00D545E12022A2
:104AC000524299181BD41F328A4001214942994011
:104AD0000198884301003800904302000A4300D047
:104AE00036E1342B00D136E1203A9A1810D43E003A
:104AF000D640F30700D530E10025002418E120213D
:104B0000C91A012252421000C8409A400243DCE711
:104B10002022D21A9740019EDE403E43E9E7964BA1
:104B2000F61800D51BE134239B1B00D51AE1202287
:104B3000524299181FD41F328A400121494299409C
:104B40000198884301003800904302000A4300D0D6
:104B50001AE1342B07D0203A9A1815D43E00D640DB
:104B6000F30700D413E1E40FE40700228349214353
:104B700015000C00DCE02021C91A0122524210006D
:104B8000C8409A400243D8E72022D21A9740019E9B
:104B9000DE403E43E4E7774B9A422DD0784B9A4271
:104BA00030D0744B9D4200D19CE0754B9D4200D1AA
:104BB0009FE0002E17D0704BF31800D5A9E03422E7
:104BC000D31A002B0FDD543A991800D598E01F3204
:104BD0008A40012149429940019B8B43390091430E
:104BE0000B4300D095E0019A3B0000982100FFF7AD
:104BF00095FD05000C009BE0002F00DBCAE00025BE
:104C0000002495E0002F36DB5B4BF31800D5C4E0A1
:104C10003422D31A00D5C3E0543A99181BD41F325A
:104C20008A40012149429940019888430100380097
:104C3000904302000A4300D0B5E0342B00D1B5E028
:104C4000203A9A1810D43E00D640F30700D5B0E0C1
:104C500000254A4C6CE02021C91A01225242100062
:104C6000C8409A400243DCE72022D21A9740019EB6
:104C7000DE403E43E9E7404BF31800D59CE0342288
:104C8000D31A00D59BE0543A99181BD41F328A409E
:104C9000012149429940019888430100380090431E
:104CA00002000A4300D08DE0342B00D18DE0203A81
:104CB0009A1810D43E00D640F30700D589E00025AD
:104CC000002435E02021C91A012252421000C840B8
:104CD0009A400243DCE72022D21A9740019EDE4030
:104CE0003E43E9E7274B994200DD76E000250024AA
:104CF0001EE0244B994200DD72E000251F4C17E0B6
:104D00002021C91A012252421000C8409A40024391
:104D10005FE7002C02DA0025184C09E0019A3B00FD
:104D200000982100FFF7BCFB05000C0000E0009D8F
:104D30002800210003B0F0BD00250C4CF8E7002549
:104D40000A4CF5E700250024F2E700250024EFE7F0
:104D500000250024ECE7009DEAE7009DE8E7002538
:104D6000064CE5E70025054CE2E7C0460000F03FB1
:104D70000000F0BFFF07000001FCFFFF0000F07F14
:104D8000FF0F0000FE0300000025174CD0E70025B0
:104D9000154CCDE70025144CCAE70025124CC7E797
:104DA0000025114CC4E700250F4CC1E700250F4C2E
:104DB000BEE700250D4CBBE700250024B8E7002521
:104DC0000024B5E700250024B2E70025802424064E
:104DD000AEE7002580242406AAE70025024CA7E7B9
:104DE00000250024A4E7C0460000F07F0000F0FF8B
:104DF00007B56046002800D100BE01880A0A0230CB
:104E0000DF2AFAD1C9B2820804D30288408800049C
:104E1000104300E00068024A5050039007BD0000B4
:104E2000FC2700200FB403BC0CBCF0B50124E40740
:104E3000634000E0F0B50C0DCF0F661E3605891BF0
:104E4000640503D3C943404200D30131640D03D04C
:104E5000661CF60A07D0E41B00207F00791C890736
:104E60008912803C24031D0DDF0F6E1E36059B1B2F
:104E70006D0503D3DB43524200D301336D0D03D0E4
:104E80006E1CF60A07D0ED1B00227F007B1C9B07DF
:104E90009B12803D2D032F1B661B58D4A446202E49
:104EA00046DA20371400BC401D00BD40F2403341BB
:104EB0002A4380185941CB0F05D0C943C043002273
:104EC00064425041514162464D0D28D10D0D07D12C
:104ED00000281FD0241940414941013A0D0DF9D055
:104EE000640006D3013000D30131002C01D1400809
:104EF0004000013A0BD4941CE40A04D11205114479
:104F0000DB071944F0BDD907204B194300E0D9074E
:104F10000020F0BD0029DDD1002CDBD1F0BD013235
:104F2000C6074008CD0728434908002EE1D0D9E73D
:104F30003C2E29DA203E40371400BC4000D001242A
:104F4000F24014431A00BB401C43D317ACE7AC46F5
:104F5000202F08DA20360400B4400D00B540F84098
:104F600039412843A5E73C2F0CDA203F40360400A6
:104F7000B44000D00124F84004430800B1400C4381
:104F8000C117EAE710001900002494E70000F07F41
:104F9000F0B50C0D661E3605891BE60A6405640D26
:104FA00002D0651CED0A04D0002001210905803CD7
:104FB0002403A4461C0D671E3F05DB1BE70A64059E
:104FC000640D02D0651CED0A04D0002201231B05EC
:104FD000803C24037740644497B484B296B274430F
:104FE000070C7E43150C6F4380B26843361802D31A
:104FF000012000043F183004350C00197D4184461F
:1050000088B29AB250430C0C62431F0C7C438EB2A0
:105010007E43921902D301263604A4191604170CF4
:105020003618674101BC81B29AB25143040C624305
:105030001B0C5C4380B25843121802D301200004B9
:1050400024181004130C401863412D185E410020F1
:10505000474106BC88B293B258430C0C6343120C10
:10506000544389B251435B1802D3012109046418E7
:1050700019041A0C091862416D1856410020474165
:1050800018BCF902720D1143F0026A0D1043ED02D3
:105090000A0D03D16D1940414941013B124E9B1B42
:1050A0007600B3420ED26D0007D301300026714165
:1050B0006646354301D1400840001B05C918E40786
:1050C0002144F0BD0BDA013306D1013004D10131A6
:1050D0004F0D01D04908F2E7E1070020F0BD01368D
:1050E00031050020EBE70000FF030000F0B51C0DC8
:1050F000671E3F05DB1BE70A6405640D02D0661CD2
:10510000F60A04D0002201231B05803C2403D0258D
:105110002D060026F6432E661E096E66CE0FF61982
:10512000B44649004F0D02D07E1CF60A03D0002081
:105130000021403F3F033E1BB600B444013F7F05C2
:10514000C91B49082E6F013676089C02950D254330
:105150007543ED137543AD1301356D10F603761BE2
:105160000CB4CC02450D2C43A2B2B3B25A43270C67
:105170007B43350C6F43A4B26C431B1902D301244B
:1051800024043F191C041D0CA4187D4124196D41F1
:10519000009A91B2ACB26143170C7C432B0C5F4375
:1051A00092B25A43A41802D301221204BF18220457
:1051B000230C52187B41019C6C431B19520ED901E0
:1051C0000A434401A01A81B2B2B2514303145A43B4
:1051D000360C734387B27743D617D21900277E4126
:1051E00036049B191704160C7F185E417316ED18D0
:1051F000F301002680337541A90F06D16400690AC6
:10520000E8055B0A184309D22FE004229444803356
:105210007541A90AA8059B0A184326D34041494174
:105220002404009A019B0D005543641B4343E41A78
:1052300095B286B27543170C7E43030C5F4392B25E
:105240005A43B61802D301221204BF183204330C99
:1052500052197B4152429C41002C02D40022013061
:1052600051414008CA071043490802B06246D707B7
:105270009210084BD218084B9A4203D21205891893
:10528000C919F0BD0020002A01DC3900F0BD01334E
:105290001905F5E7FD030000FE070000002200B538
:1052A000203200F004F8080000BD000000220B15B9
:1052B0000AD410B5944600F0A7F81414013400DAAB
:1052C0000021CB17144C2047002000217047624476
:1052D000343A0CD40C2A07DA040091409040524230
:1052E0002032D440214310BDD843D94310BD2032D1
:1052F00007D40C469440524220321141D040204302
:1053000010BD0800C917203203D452422032104188
:1053100010BD1800190010BDCF5200104A00520DE8
:10532000144BD21A13DDFF2A1EDAD205CB0FDB078E
:105330001A43C300400F0903490A084310435B00A6
:1053400001D301D0013070474308FBD2704702D02F
:10535000C80FC00770470A0312130132F8D1420F79
:10536000072AF5D1012200E0FF22C80F00028018B1
:10537000C00570478003000000210A00002104E0FE
:1053800000210A00C11704E00022002306E0C04605
:105390000022CB1758405940C01A994130B5184CDB
:1053A000A21A002903D1010010D00020203A4C1588
:1053B00012D104D2013A001849414C0DFAD3114CD4
:1053C000A24204D212058918DB07C91830BDD243A6
:1053D000520D00200021F5E703D4013A001849419D
:1053E000FBD50B324405C00A4D052843C90A6400A9
:1053F00003D0002460416141E1E7E0D34408F8E7CD
:1054000032040000FE0700000A0DCC0F531E1B05DE
:10541000C91A520503D3C943404200D30131520D8A
:1054200003D0531CDB0A07D0121B00206400611C50
:1054300089078912803A1203014BD21A7047000083
:10544000FF030000023225D40C2A1CDA1125AD1A04
:105450000B002B41083207350600EE40904091408A
:105460003143F0CC63431A1500235A415543564348
:105470005743BF02F412760576196741ED177F197D
:10548000801BB94170470C220020C9174900013127
:105490000905DBE70902030E1943000253422032DB
:1054A00008D40C0019419440D840204300225041B8
:1054B000514170470800C917203B2032F1D5002028
:1054C0000021002270470000F0B5FFF79DFF54A4B3
:1054D000FFF7B8FF002904DA204C214D001969417B
:1054E000013A04B4012752A6002201239B0730CEC3
:1054F000B446001BA9410BD47E4220361D003D411D
:105500001C00B4401600FE40344362416B4101E090
:105510000019694166460137212FE8D185B29EB254
:10552000754307147E43190C4F4384B24C43F11763
:1055300036190024614109047F183404310C6419C0
:105540007941A40F8800204389178018594104BC71
:1055500052423E32FFF71DFFF0BD00006BDE73F4D8
:10556000FD855C2CF0B54F0050D27F154ED0013731
:105570004FD0FFF749FF04B44902C20D1143400266
:1055800001272BA6B446002200237E4220360D00C0
:105590003D410C00B4400600FE40344344414D41BF
:1055A000AE0F05D120002900664630CE121BAB415C
:1055B0000824A4440137212FE7D18900891012184B
:1055C0004B4180BC17A413CC0137784379437C430B
:1055D0004F05C912CD17C0196941A702A415CD17EF
:1055E000C9196C41DD17801859416C413E22CD1715
:1055F000AC4208D000090E073043090926073143A1
:105600002411043AF3E7FFF7C4FEF0BD024900207D
:10561000F0BD02490020F0BD0000F0FF0000F07F67
:10562000AAB800006BDE1300A3EF0F0021170B00D8
:10563000F34B98BFEC23F319D6104DCDE3FB470E87
:105640007AB9BC8ADBC18907CC542C021846E10325
:10565000053083E7B029F8011E1FE0874505FE00ED
:10566000249E41ACA9807F008117624515E03F0070
:10567000E610ABA902F81F008858455500FE0F0040
:10568000C4AAA90A80FF070056455501E0FF0300A0
:10569000ABA92A00F8FF010045550500FEFF0000F8
:1056A000AAAA0080FF7F0000551500E0FF3F000020
:1056B000AB0200F8FF1F0000550000FEFF0F0000C6
:1056C0000B0080FFFF0700000100E0FFFF03000068
:1056D0000000F8FFFF0100000000FEFFFF000000D7
:1056E0000080FFFF7F00000000E0FFFF3F000000A0
:1056F00000F8FFFF1F00000000FEFFFF0F0000008A
:1057000080FFFFFF07000000E0FFFFFF0300000035
:10571000F8FFFFFF01000000FEFFFFFF0000000098
:1057200000000080000000000000004000000000B9
:1057300051434343C9188C46110C83B24B4310B4F8
:10574000040C614392B280B2504362431C041B0CB0
:10575000001910BC59411304120CC0185141614486
:105760007047000048404140484000239C46114B90
:105770005B68184700239C460E4B1B6818470E4A6F
:10578000936F9B0804D200239C460A4BDB681847A2
:10579000F0B5146E556E576F166FFFF7F4FF064A9B
:1057A0001466556657671667F0BD00239C46014B8B
:1057B0009B681847FC280020000000D007B548402F
:1057C0004140484001E0C04607B54200120E03D0F8
:1057D000FF2A03D1420218D8C00DC0054A00120E9C
:1057E00003D0FF2A03D14A020FD8C90DC9050122EF
:1057F000414005D4414001D5814207BD884207BDE3
:105800000143491801D0C043001807BD00B5FFF798
:10581000D5FF804100BD0000C10FC90700D540423F
:10582000002817D0F44603B40B4B1B68984706BCFE
:1058300081409E384042803107D20B0607D0490094
:10584000490AC0051043084360470130F8E7490A98
:105850008902F5E770470000C0270020034BDB6F8B
:10586000FC4618477CDFA15900100000FC280020EE
:1058700070B513231D782A48FEF7F4F90400012DB2
:1058800011D0012D09DDA31E1B789B007F2B40DD6D
:1058900080222100234800F0BFF82348FEF7DAF900
:1058A000224B186070BD542201001E4800F0B4F86D
:1058B0001F4B1A881F4B9A421CD1A7239B011A88A1
:1058C0001D4B9A4216D11D4B1A881D4B9A4211D17D
:1058D0001C4B1A8894239B019A420BD11A4B1A88AD
:1058E0001A4B9A4206D11A4B1A681A4B9A4201D1A6
:1058F000152307E01848FCF7BDFC99001748094A32
:10590000885001331F2BF8D9144A064B1A62DA610A
:10591000B7E7134B134A42211348FCF711FCC0466A
:1059200053460000FC2800204C330000C027002014
:10593000EE290000C40F0000C20D0000962B0000ED
:10594000C0B50000182B0000CC2A000010B50000E4
:10595000FC2C000051ED87649CAD00106D590010C7
:1059600078BE0010F4BE0010ACBE001007B5604653
:10597000002800D100BE01880A0A0230DF2AFAD1CD
:10598000C9B2820804D3028840880004104300E0B2
:105990000068024A5050039007BD0000FC28002018
:1059A000C30FDB0741000A0E07D0FF2A08D0090900
:1059B000054A8918194340077047190000207047AD
:1059C0000249C918FAE70000000000380000F07F23
:1059D00010B5040004F046FB002804D00419034B62
:1059E0009C4200D810BD0248FCF744FC0000042093
:1059F00008BF001010B504F03FFB10BD01480421A2
:105A0000014B184710140020753C0010014B1B6817
:105A10001847000010140020014B5B681847000075
:105A20001014002010B5FFF7D3FF10BD10B5FFF71D
:105A3000E1FF10BD10B5FFF7DDFF10BD10B503008D
:105A4000080011001B68984710BD0000F8B507005A
:105A50000D001600437C002B02D0002400200CE037
:105A600003681100280098472DE03B7C10E00221DC
:105A700015483B689847601C0134B44214DA002C86
:105A8000F3DD2B19013B1B780D3B5A425341DBB22E
:105A90002A5D0A2AF0D1002BEED1A042E7DA211AC2
:105AA00028183B689847E2E7B04203DA311A281811
:105AB0003B689847002E06DDAD19013D2B780D3B64
:105AC0005A4253413B74F8BD98BF001070B50500B1
:105AD0000368002B16D00C4B1C6805E0290004C994
